:100000000C9463000C948B000C948B000C942B06C6
:100010000C942B060C942B060C948B000C948B00E8
:100020000C948B000C948B000C948B000C948B0024
:100030000C948B000C948B000C948B000C948B0014
:100040000C9489050C948B000C94F9050C94D30541
:100050000C948B000C948B000C948B000C948B00F4
:100060000C948B000C948B000000000024002700EF
:100070002A0000000008000201000003040700003D
:1000800000000000000000000000230026002900FE
:1000900000000000250028002B00040404040404D0
:1000A0000404020202020202030303030303010227
:1000B00004081020408001020408102001020408F6
:1000C0001020A306970A11241FBECFEFD8E0DEBF91
:1000D000CDBF22E0A2EEB1E001C01D92AB3FB2075E
:1000E000E1F711E0A0E0B1E0E8E4FAE102C0059038
:1000F0000D92A23EB107D9F710E0C2E6D0E004C0ED
:100100002197FE010E94020BC136D107C9F70E9458
:100110005D070C94170D0C940000089590E0FC010D
:10012000EE58FF4F2491FC01E255FF4F3491FC0142
:10013000E656FF4FE491EE23C9F0222339F0233035
:1001400001F1A8F4213019F1223029F1F0E0EE0F8D
:10015000FF1FE057FF4FA591B4918FB7F894EC9132
:10016000611126C030953E233C938FBF0895273000
:10017000A9F02830C9F0243049F7809180008F7DA4
:1001800003C0809180008F7780938000DFCF84B59B
:100190008F7784BDDBCF84B58F7DFBCF8091B0009E
:1001A0008F778093B000D2CF8091B0008F7DF9CF50
:1001B0003E2BDACFCF93DF9390E0FC01E255FF4F67
:1001C000249186569F4FFC0184918823D1F090E0C2
:1001D000880F991FFC01E859FF4FA591B491FC01CC
:1001E000E057FF4FC591D49161110EC09FB7F894AD
:1001F0008C91E22FE0958E238C932881E223E88373
:100200009FBFDF91CF9108958FB7F894EC91E22BC7
:10021000EC938FBFF6CF2FB7F89460912B027091BB
:100220002C0280912D0290912E022FBF0895AF9243
:10023000BF92CF92DF92EF92FF920F931F93CF93D3
:10024000DF936C017B018B01040F151FEB015E0135
:10025000AE18BF08C017D10759F06991D601ED91CA
:10026000FC910190F081E02DC6010995892B79F769
:10027000C501DF91CF911F910F91FF90EF90DF901B
:10028000CF90BF90AF900895FC01538D448D252FE2
:1002900030E0842F90E0821B930B541710F0CF9620
:1002A000089501970895FC01918D828D981761F052
:1002B000A28DAE0FBF2FB11D5D968C91928D9F5F69
:1002C0009F73928F90E008958FEF9FEF0895FC0148
:1002D000918D828D981731F0828DE80FF11D858DFB
:1002E00090E008958FEF9FEF0895FC01918D228D8E
:1002F000892F90E0805C9F4F821B91098F73992713
:10030000089581E392E00E94750121E0892B09F4B0
:1003100020E0822F089580E090E0892B29F00E9450
:10032000810181110C9400000895FC01A48DA80F97
:10033000B92FB11DA35ABF4F2C91848D90E0019627
:100340008F739927848FA689B7892C93A089B18947
:100350008C91837080648C93938D848D981306C0E8
:100360000288F389E02D80818F7D80830895EF924C
:10037000FF920F931F93CF93DF93EC0181E0888F5F
:100380009B8D8C8D98131AC0E889F989808185FF2F
:1003900015C09FB7F894EE89FF896083E889F989D1
:1003A00080818370806480839FBF81E090E0DF91D3
:1003B000CF911F910F91FF90EF900895F62E0B8D26
:1003C00010E00F5F1F4F0F731127E02E8C8D8E11E1
:1003D0000CC00FB607FCFACFE889F989808185FF48
:1003E000F5CFCE010E949501F1CFEB8DEC0FFD2FE3
:1003F000F11DE35AFF4FF0829FB7F8940B8FEA8903
:10040000FB8980818062CFCFCF93DF93EC01888D11
:100410008823B9F0AA89BB89E889F9898C9185FD7F
:1004200003C0808186FD0DC00FB607FCF7CF8C910D
:1004300085FFF2CF808185FFEDCFCE010E9495012F
:10044000E9CFDF91CF9108952091240230912502C8
:100450002817390771F4909122028091230298178E
:1004600041F0E0912202F0E0EE51FE4F808190E0F9
:1004700008958FEF9FEF08950895EF92FF920F93E5
:100480001F93CF93DF93DC015C96ED90FC905D971A
:10049000E114F10479F481E090E013969C938E933B
:1004A000129790E080E0DF91CF911F910F91FF9024
:1004B000EF9008955196ED91FC91529750968C9142
:1004C0005097982F90950FB75E962C915E97122FAC
:1004D000127021FD6095F8942081112319F1282BC9
:1004E0002083E7012197F1F728E0462F50E0308183
:1004F00060FF1AC0382B3083E7012197F1F7BA016A
:1005000075956795215089F7112381F080818923A2
:1005100080830FBF5C968D919C910197F1F781E0EC
:1005200090E0C1CF2923DCCF3923E5CF9081892BFF
:10053000EFCF20912402309125022817390771F45A
:10054000809123022091220290E0805C9F4F821BC9
:10055000910960E470E00E94EE0A089590E080E066
:100560000895209124023091250228173907B9F403
:100570009091220280912302981789F0E091220243
:10058000F0E0EE51FE4F80812091220230E02F5F9B
:100590003F4F2F7333272093220290E008958FEF6F
:1005A0009FEF08950F931F930E940B016093E00249
:1005B0007093E1028093E2029093E30288ED92E06F
:1005C0000E94B10297FF1DC00E940B010091E00242
:1005D0001091E1022091E2023091E302601B710B65
:1005E000820B930B0091DC021091DD022091DE0260
:1005F0003091DF026017710782079307F8F28FEFDF
:100600009FEF1F910F91089590E080E0089560E0C2
:1006100083E00C948E0061E082E00C948E0060E038
:1006200082E00E948E000E94070360E084E00C9448
:100630008E00FB0101900020E9F73197AF01461BC6
:10064000570BDC01ED91FC910280F381E02D0994C0
:10065000CF93DF93FC01448155816081718181E3F7
:1006600092E00E941701EC016AE271E081E392E0FE
:100670000E9419038C0F9D1FDF91CF9108950C9458
:100680001903CF93DF93BC0181E392E00E943F0303
:10069000EC016AE271E081E392E00E9419038C0FA1
:1006A0009D1FDF91CF9108952091D2023091D30206
:1006B000232B39F421E0FC018081882361F020E0C4
:1006C0000AC0BC018091CE029091CF020E94070D1A
:1006D00021E0892BA1F7822F0895CF93DF93EC01BE
:1006E0008091CE029091CF020097E9F068817981E4
:1006F00061157105B1F04091D0025091D1022C8169
:100700003D814217530768F00E94100D8C819D8136
:100710009093D3028093D2021D821C82DF91CF91ED
:1007200008950E94B80B888199819093CF0280939D
:10073000CE028A819B819093D1028093D0028C81DA
:100740009D819093D3028093D202198218821B82DA
:100750001A82E2CFCF93DF93EC01888199810097D1
:1007600011F00E94B80B198218821D821C821B8214
:100770001A82DF91CF910895FC01808191810097C9
:1007800011F00C94B80B08950F931F93CF93DF9340
:10079000EC0188819981009759F02A813B812617C5
:1007A000370730F081E0DF91CF911F910F910895CD
:1007B0008B016F5F7F4F0E94410C009759F0998326
:1007C00088831B830A832C813D81232B59F7FC01ED
:1007D0001082E8CF80E0E7CFEF92FF920F931F9354
:1007E000CF93DF93EC017B01198218821B821A825E
:1007F0001D821C82FB0101900020E9F731978F01D7
:10080000061B170BB8010E94C403811109C0CE0159
:10081000DF91CF911F910F91FF90EF900C94AA035D
:100820001D830C83B70188819981DF91CF911F913E
:100830000F91FF90EF900C94100D70E060E08EEC43
:1008400092E00E94C403811104C08EEC92E00C94EB
:10085000AA031092D3021092D2026CE271E080914E
:10086000CE029091CF020C94100DEF92FF920F9355
:100870001F93CF93DF93EC01E090CE02F090CF0274
:10088000E114F10421F10091D2021091D30201157B
:100890001105A9F08C819D81080F191FB801CE01A7
:1008A0000E94C403882399F0288139818C819D811D
:1008B000B701820F931F0E94100D1D830C83CE0180
:1008C000DF91CF911F910F91FF90EF900895CE018E
:1008D0000E94AA03F4CFEF92FF920F931F93CF933E
:1008E000DF9300D0CDB7DEB78C016CE271E00E94DF
:1008F000EC030E94D20297FD21C08A309105F1F0ED
:1009000089831A82F801E480F580FFEFEF1AFF0A6D
:10091000B701C8010E94C403882359F3F80120815C
:10092000318184819581BE016F5F7F4F820F931F5C
:100930000E94100DF801F582E482DBCFC8010F9010
:100940000F90DF91CF911F910F91FF90EF9008953D
:100950000F931F93CF93DF9300D000D000D0CDB77B
:10096000DEB780912F02909130028630910509F018
:1009700070C088ED92E00E949902892BA1F1CE010E
:1009800001960E946B04CE0101960E946D03CE0178
:1009900001960E94BC038DE291E00E9454038823DB
:1009A00009F44CC08EEC92E00E9428036CE371E0E5
:1009B00088ED92E00E943F030E940B016093D402F5
:1009C0007093D5028093D6029093D7020E941D04A3
:1009D0008BE491E00E9441030E9407030E940B03F5
:1009E00082E090E027C00E940B010091D402109198
:1009F000D5022091D6023091D702601B710B820B79
:100A0000930B653F714081059105C0F068E571E089
:100A100088ED92E00E9419030E940B016093D402BA
:100A20007093D5028093D6029093D7020E94070359
:100A300087E090E09093300280932F0226960FB6C5
:100A4000F894DEBF0FBECDBFDF91CF911F910F9104
:100A50000895079799F788ED92E00E949902892BF3
:100A600069F1CE0101960E946B04CE0101960E94AD
:100A70006D03CE0101960E94BC038DE291E00E94BD
:100A800054038823D9F28EEC92E00E9428036CE391
:100A900071E088ED92E00E943F030E940B01609399
:100AA000D4027093D5028093D6029093D7020E940D
:100AB0001D048BE491E00E94410390CF0E940B0142
:100AC0000091D4021091D5022091D6023091D70224
:100AD000601B710B820B930B653F71408105910583
:100AE00008F4ACCF68E571E088ED92E00E9419034C
:100AF0000E940B016093D4027093D5028093D602BA
:100B00009093D70261E083E00E948E0086E090E03F
:100B100091CF1F920F920FB60F9211242F933F93F4
:100B20008F939F93AF93BF9380912B0290912C0250
:100B3000A0912D02B0912E0230912A0223E0230FC2
:100B40002D3758F50196A11DB11D20932A028093DF
:100B50002B0290932C02A0932D02B0932E02809131
:100B6000260290912702A0912802B09129020196B5
:100B7000A11DB11D8093260290932702A093280205
:100B8000B0932902BF91AF919F918F913F912F9187
:100B90000F900FBE0F901F90189526E8230F029616
:100BA000A11DB11DD2CF1F920F920FB60F9211242B
:100BB0002F933F934F935F936F937F938F939F9365
:100BC000AF93BF93EF93FF9381E392E00E9495016F
:100BD000FF91EF91BF91AF919F918F917F916F9115
:100BE0005F914F913F912F910F900FBE0F901F90EB
:100BF00018951F920F920FB60F9211242F938F9377
:100C00009F93EF93FF93E0914102F0914202808124
:100C1000E0914702F091480282FD1BC090818091D3
:100C20004A028F5F8F7320914B02821741F0E0914F
:100C30004A02F0E0EF5CFD4F958F80934A02FF91EE
:100C4000EF919F918F912F910F900FBE0F901F905A
:100C500018958081F4CF1F920F920FB60F92112436
:100C60002F933F934F935F936F937F938F939F93B4
:100C7000AF93BF93EF93FF93E0912402F09125028D
:100C8000309749F0A685B7858585968D91FF14C06C
:100C90009C918923A1F4FF91EF91BF91AF919F9116
:100CA0008F917F916F915F914F913F912F910F9015
:100CB0000FBE0F901F9018959C91892361F7A3890F
:100CC000B4899C918589809589238C93868997899D
:100CD0000197F1F7608D718DA685B785558538E050
:100CE00020E0CB010197F1F7822F90E09595879551
:100CF000282F4C91452309F02068315091F7868DBB
:100D000081FD20958091230290E001968F739927B1
:100D100030912202381799F0A0912302B0E0AE5131
:100D2000BE4F2C9380932302828D938D0197F1F710
:100D3000A389B4898C919589892B8C93ACCF868DAE
:100D40008160868FF1CF109234021092330288EEC8
:100D500093E0A0E0B0E08093350290933602A09338
:100D60003702B09338022AE031E030933202209308
:100D7000310225EC30E030933E0220933D0224EC1A
:100D800030E03093400220933F0220EC30E030937B
:100D900042022093410221EC30E030934402209340
:100DA000430222EC30E0309346022093450226ECC9
:100DB00030E0309348022093470210924A0210928A
:100DC0004B0210924C0210924D021092DB021092D4
:100DD000DA028093DC029093DD02A093DE02B093EE
:100DE000DF028CE191E09093D9028093D8021092B7
:100DF000EF021092EE021092F1021092F0021092A5
:100E0000F3021092F2021092F5021092F402609135
:100E1000F6026E7F6D7F6093F6026695617081E0E9
:100E2000682788E00E948E0061E088E00E94DA0076
:100E3000E6EBF0E0E491E093E802E2EAF0E0E4912E
:100E4000F0E0EE0FFF1FE057FF4F859194919093D4
:100E5000EA028093E90260E087E00E94DA00809174
:100E6000F60281FD04C061E087E00E948E0087E009
:100E70008093E402E5EBF0E0E491E093E502E1EA3F
:100E8000F0E0E491F0E0EE0FFF1FEA57FF4F85918D
:100E900094919093E7028093E6020E940B01609385
:100EA000D4027093D5028093D6029093D7026CE25D
:100EB00071E08EEC92E00C94EC03CF93DF9300D0C2
:100EC00000D000D0CDB7DEB7789484B5826084BD01
:100ED00084B5816084BD85B5826085BD85B581603E
:100EE00085BD80916E00816080936E0010928100BC
:100EF0008091810082608093810080918100816077
:100F00008093810080918000816080938000809137
:100F1000B10084608093B1008091B00081608093C3
:100F2000B00080917A00846080937A0080917A008A
:100F3000826080937A0080917A00816080937A0049
:100F400080917A00806880937A001092C100E091CD
:100F50004102F091420282E08083E0913D02F091F3
:100F60003E021082E0913F02F09140028FEC8083BC
:100F700010924902E0914502F091460286E080839A
:100F8000E0914302F0914402808180618083E0918E
:100F90004302F0914402808188608083E0914302A3
:100FA000F0914402808180688083E0914302F09157
:100FB000440280818F7D80831092F3021092F202AE
:100FC0001092F1021092F0021092EF021092EE02D3
:100FD0008DE991E09093F5028093F4029091E40200
:100FE000963108F047C02DEB30E03093EF022093AC
:100FF000EE022BE931E03093F1022093F0022CE273
:1010000031E03093F3022093F2022091680084E0F3
:10101000983048F031E09E3008F430E081E001C0C3
:10102000880F3A95EAF7822B809368002DE630E02E
:10103000983050F02BE630E09E3030F02CE630E077
:10104000963110F030E020E03093EC022093EB0278
:10105000292F30E0983008F074C081E001C0880F7B
:101060009A95EAF78093ED028091F4029091F5024F
:101070000197F1F78091F2029091F302892B49F1E7
:10108000E0912402F091250222E0E83DF20709F107
:10109000309739F0A389B4899C91858980958923FB
:1010A0008C938091F6028E7F8093F6021092230239
:1010B0001092220288ED92E0909325028093240200
:1010C000E091EB02F091EC0280819091ED02892B8E
:1010D00080831092300210922F0261E082E00E9421
:1010E000DA0061E083E00E94DA0061E084E00E94BF
:1010F000DA0044244394512C06E010E023E0622EF1
:10110000712C35E0C32ED12C44E0E42EF12C52E0BA
:10111000A52EB12C80E0882E80E0982EE0912F0241
:10112000F0913002E830F10518F5E756F74F0C94CE
:10113000020BAE08C2080B095809C109230A940A18
:10114000940A9E3040F42850310981E001C0880F94
:101150002A95EAF787CF2E503109F7CF0E940F0367
:101160008EE591E00E9441035092300240922F029E
:101170008114910499F20E948101882359F20E94FE
:101180000000C8CF88ED92E00E949902892B81F37C
:101190008CE691E00E944103CE0101960E946B040F
:1011A000CE0101960E946D03CE0101960E94BC0300
:1011B0008DE291E00E9454038823D1F26DE771E043
:1011C000CE0101960E94EC03CE0101960E943504E7
:1011D0000E942803CE0101960E94BC036CE371E0DB
:1011E00088ED92E00E943F030E940B016093D402BD
:1011F0007093D5028093D6029093D7020E941D046B
:1012000086E891E00E9441030E940B03B0923002F5
:10121000A0922F02ADCF88ED92E00E949902892B17
:1012200009F46DC1CE0101960E946B04CE010196B6
:101230000E946D03CE0101960E94BC0382E991E0F9
:101240000E945403882309F446C16DE771E0CE0182
:1012500001960E94EC03CE0101960E9435040E9483
:101260002803CE0101960E94BC0369E571E088ED78
:1012700092E00E943F030E940B016093D40270939E
:10128000D5028093D6029093D7020E941D048CE968
:1012900091E00E94410360E082E00E948E0061E0E4
:1012A00084E00E948E00F0923002E0922F0260CF24
:1012B00088ED92E00E949902892BD1F1CE0101962E
:1012C0000E946B04CE0101960E946D03CE0101962F
:1012D0000E94BC0389EB91E00E945403882309F427
:1012E000ADCF6DE771E0CE0101960E94EC03CE0117
:1012F00001960E9435040E942803CE0101960E94A7
:10130000BC0369E571E088ED92E00E943F030E9412
:101310000B016093D4027093D5028093D602909310
:10132000D70283EA91E00E9441030E941D0420CF6E
:101330000E940B012091D4023091D5024091D60237
:101340005091D702621B730B840B950B613177426E
:101350008105910508F40CCF87EA91E00E944103D2
:101360000E940B016093D4027093D5028093D60241
:101370009093D7020E940F031093300200932F0224
:10138000F7CE88ED92E00E949902892B09F446C0BD
:10139000CE0101960E946B04CE0101960E946D035E
:1013A000CE0101960E94BC038FEB91E00E94540392
:1013B000882309F490C06DE771E0CE0101960E9488
:1013C000EC03CE0101960E9435040E942803CE0151
:1013D00001960E94BC0369E571E088ED92E00E94ED
:1013E0003F030E940B016093D4027093D502809357
:1013F000D6029093D7020E941D048AEC91E00E94CD
:10140000410360E084E00E948E0061E083E00E947E
:101410008E00D0923002C0922F02AACE0E940B0101
:101420002091D4023091D5024091D6025091D7023A
:10143000621B730B840B950B69357B41810591050C
:1014400008F496CE89CF88ED92E00E949902892B0C
:1014500009F455C0CE0101960E946B04CE0101969D
:101460000E946D03CE0101960E94BC0384ED91E0C1
:101470000E945403882379F16DE771E0CE01019653
:101480000E94EC03CE0101960E9435040E942803BD
:10149000CE0101960E94BC0369E571E088ED92E0FF
:1014A0000E943F030E940B016093D4027093D50207
:1014B0008093D6029093D7020E941D048CED91E098
:1014C0000E9441030E9407030E940B0370923002A6
:1014D00060922F024DCE82EA91E00E94540388234D
:1014E00009F446CE0E940B016093D4027093D5029A
:1014F0008093D6029093D7020E941D043BCF0E9496
:101500000B012091D4023091D5024091D602509126
:10151000D702621B730B840B950B693B7B408105E3
:10152000910508F425CE18CF0E94A80421CE8EEC98
:1015300092E00E94BC038CE191E09093D9028093E9
:10154000D8028091240290912502885D924071F426
:10155000E091EB02F091EC0290818091ED02809598
:1015600089238083109225021092240208952F92DD
:101570003F924F925F926F927F928F929F92AF9223
:10158000BF92CF92DF92EF92FF920F931F93CF9370
:10159000DF93CDB7DEB7CA1BDB0B0FB6F894DEBF07
:1015A0000FBECDBF09942A88398848885F846E842D
:1015B0007D848C849B84AA84B984C884DF80EE8077
:1015C000FD800C811B81AA81B981CE0FD11D0FB680
:1015D000F894DEBF0FBECDBFED01089597FB072E37
:1015E00016F4009407D077FD09D00E94080B07FC81
:1015F00005D03EF4909581959F4F08957095619523
:101600007F4F0895EE0FFF1F0590F491E02D099490
:10161000AA1BBB1B51E107C0AA1FBB1FA617B70718
:1016200010F0A61BB70B881F991F5A95A9F7809534
:101630009095BC01CD0108950F931F93CF93DF9335
:101640008230910510F482E090E0E091F902F0918F
:10165000FA0230E020E0B0E0A0E0309799F42115E4
:10166000310509F44AC0281B390B24303105D8F55F
:101670008A819B816115710589F1FB0193838283C6
:10168000FE0111C040815181028113814817590721
:10169000E0F04817590799F4109761F012960C93EF
:1016A000129713961C933296CF01DF91CF911F9121
:1016B0000F9108950093F9021093FA02F4CF2115C7
:1016C000310551F04217530738F0A901DB019A01A7
:1016D000BD01DF01F801C1CFEF01F9CF9093FA020C
:1016E0008093F902CDCFFE01E20FF31F8193919316
:1016F0002250310939832883D7CF2091F7023091C6
:10170000F802232B41F42091020130910301309320
:10171000F8022093F7022091000130910101211578
:10172000310541F42DB73EB74091040150910501B8
:10173000241B350BE091F702F091F802E217F30752
:10174000A0F42E1B3F0B2817390778F0AC014E5F31
:101750005F4F2417350748F04E0F5F1F5093F80274
:101760004093F702819391939FCFF0E0E0E09CCF0C
:10177000CF93DF930097E9F0FC0132971382128236
:10178000A091F902B091FA02ED0130E020E010974B
:10179000A1F420813181820F931F2091F7023091B3
:1017A000F8022817390709F061C0F093F802E093B6
:1017B000F702DF91CF910895EA01CE17DF07E8F530
:1017C0004A815B819E0141155105B1F7E901FB8317
:1017D000EA8349915991C40FD51FEC17FD0761F4B5
:1017E000808191810296840F951FE90199838883F6
:1017F000828193819B838A83F0E0E0E012968D9151
:101800009C9113970097B9F52D913C911197CD01BB
:101810000296820F931F2091F7023091F802281749
:10182000390739F6309751F51092FA021092F90201
:10183000B093F802A093F702BCCFD383C283408158
:101840005181840F951FC817D90761F44E5F5F4F10
:1018500088819981480F591F518340838A819B81D8
:10186000938382832115310509F0B0CFF093FA02FA
:10187000E093F9029ECFFD01DC01C0CF13821282FA
:10188000D7CFB0E0A0E0E7E4FCE00C94B90A8C010B
:10189000009751F4CB010E941C0B8C01C801CDB7FD
:1018A000DEB7E0E10C94D50AFC01E60FF71F9C01BE
:1018B00022503109E217F30708F49DC0D901CD91F8
:1018C000DC911197C617D70798F0C530D10530F3D2
:1018D000CE0104978617970708F3C61BD70B2297EC
:1018E000C193D1936D937C93CF010E94B80BD6CF57
:1018F0005B01AC1ABD0A4C018C0E9D1EA091F90231
:10190000B091FA02512C412CF12CE12C109731F5B9
:101910008091F7029091F8028815990509F05CC052
:101920004616570608F058C08091000190910101B9
:10193000009741F48DB79EB7409104015091050185
:10194000841B950BE817F90708F055C0F093F802CF
:10195000E093F702F90171836083A0CF8D919C9190
:10196000119712966C90129713967C901397A81566
:10197000B90559F56C0142E0C40ED11CCA14DB0450
:1019800020F1AC014A195B09DA011296159780F033
:101990006282738251834083D9016D937C93E114F9
:1019A000F10471F0D7011396FC93EE93129776CF62
:1019B00022968C0F9D1FF90191838083F301EFCF55
:1019C000F093FA02E093F90269CF4816590608F439
:1019D0002C017D01D3019ACFCB010E941C0B7C010D
:1019E000009749F0AE01B8010E94FE0CC8010E94A8
:1019F000B80B870153CF10E000E050CFFB01DC01B2
:101A000002C001900D9241505040D8F70895FB015B
:101A1000DC018D91019080190110D9F3990B089583
:101A2000FB01DC0101900D920020E1F7089510E028
:101A3000C2E6D0E004C0FE010E94020B2196C3362C
:081A4000D107C9F7F894FFCFAC
:101A48000000FB02800000000000B70117014401FC
:101A58000402750153016701000000003D021701EF
:101A680004033C029902B10224020D0A006D61735D
:101A78007465725F70726573656E7400736C6176FD
:101A8800655F70726573656E740A00534C41564504
:101A98003A205245534554004E41434B0A00545294
:101AA80041464649435F5354415254004C495354AC
:101AB800454E5F544F5F4D4153544552004D41537D
:101AC8005445523A20005345545F545241464649C2
:101AD80043006E6F775F677265656E0047524545D4
:101AE8004E004E41434B00545241464649435F43E2
:101AF80055545F4F5554454400434845434B006E89
:101B08006F775F79656C6C6F7700534C4F575F4404
:101B18004F574E006E6F775F7265640053544F5095
:021B28000000BB
:00000001FF
